:020000020000FC
:040000000C94080054
:10000C000C9435000FEF0DBF01E20EBF0FEF00BBDC
:10001C0001B907B90AEA08B9002701BB02B90DB347
:10002C0004600DBB00916900006300936900789433
:10003C0008E31ED02DD046D008E01AD029D001E01C
:10004C0017D026D006E014D023D00EE011D020D04B
:10005C0062E8062F332743D01BD000C0FFCF68B90E
:10006C0001E006D015D0062F332739D011D00895D2
:10007C0001BB1FD0169A1DD016981BD0089501BB3A
:10008C00179A17D0169A15D0169813D0179808955A
:10009C000F93002700BB01BB159A0BD0169A09D001
:1000AC000FB1169807FDF9CF15980FEF00BB0F9104
:1000BC0008958F939F939FE08CE90197F1F79F919F
:1000CC008F910895F6DFF5DFF4DFF3DFF2DF0895AB
:1000DC002227011718F0011B2395FBCF0895332716
:1000EC007AE033957AE0062F172F2227F1DF622F63
:1000FC00702F7F936030A9F7303051F03A957F9193
:10010C00072F112706D0702F072FB9DFC1DFF4CFCF
:08011C00089510E3010F08959E
:00000001FF
