:020000020000FC
:100000000FEF0DBF01E20EBF00EF00930A010FEFEB
:1000100001B907B900BB08B901E052D061D04BE586
:10002000042F55D05DD0042F33277FD059D00CE753
:100030004ED056D092E0042F192F6CD0402F912F24
:10004000042F332772D04CD08FEE66276430E1F353
:1000500080930B010FEF0A95F1F7009109010F70E2
:100060000F3061F071E05527543041F0102F172305
:1000700051F05395770F706F0C943400880F8F6098
:1000800063950C942600633049F0533059F0052FE6
:10009000000F050F060F03950C945D0001E4050F9A
:1000A0000C945D00603029F0613031F003E20C9473
:1000B0005D000AE20C945D00002708B90C9424004E
:1000C00001BB1FD0169A1DD016981BD0089501BBF6
:1000D000179A17D0169A15D0169813D01798089516
:1000E0000F93002700BB01BB159A0BD0169A09D0BD
:1000F0000FB1169807FDF9CF15980FEF00BB0F91C0
:1001000008958F939F939FE08CE90197F1F79F915A
:100110008F9108952F932227011718F0011B239523
:10012000FBCF102F022F2F9108952F933F934F93C2
:1001300022273AE023953AE0042F132FEBDF402FDC
:10014000312F3F934030B1F7203051F02A953F9145
:10015000032F112709D0302F032FB9DFC1DFF4CFD0
:0E0160004F913F912F91089510E3010F0895E4
:00000001FF
